:100000000C9434000C9446000C9446000C9446006A
:100010000C9446000C9446000C9446000C94460048
:100020000C9446000C9446000C9446000C94460038
:100030000C9446000C9446000C9446000C94460028
:100040000C9446000C9446000C94EE000C940D01A8
:100050000C9446000C9446000C9446000C94460008
:100060000C9446000C94460011241FBECFEFD8E03C
:10007000DEBFCDBF11E0A0E0B1E001C01D92A6310E
:10008000B107E1F70E94BE000C945F010C940000E0
:100090001F93182F8FEF0E944A0181E00E944A01AE
:1000A00088E70E944A01812F0E944A0180E00E9455
:1000B0004A0180E00E944A0180E00E944A0180E0FB
:1000C0000E944A0127E83FEF822F811B0E944A01CC
:1000D0001F910895EF92FF920F931F93DF93CF9399
:1000E000CDB7DEB728970FB6F894DEBF0FBECDBFF1
:1000F0008FEF0E944A0181E00E944A0186E80E9437
:100100004A0180E00E944A0180E00E944A0180E0AA
:100110000E944A0180E00E944A0180E00E944A0158
:1001200089E70E944A010E9438018F3FE1F75F98FA
:100130008E010F5F1F4F0F2EF9E0EF2EFF24F02DE1
:10014000EC0EFD1E0E943801F80181938F01EE151F
:10015000FF05C1F73A8120E08B81280F311D822FE6
:10016000932F28960FB6F894DEBF0FBECDBFCF9168
:10017000DF911F910F91FF90EF9008958FEC90E029
:100180000E94D800579A789481E40E9448005F9AB0
:100190000E946A0090931501809314018FEF93EDF4
:1001A000A0E381509040A040E1F700C00000EFCFF5
:1001B0009093C5008093C40082E08093C00088E9DA
:1001C0008093C10086E08093C20010920B011092D0
:1001D0000A01109201011092000108951F920F92DE
:1001E0000FB60F9211248F939F93EF93FF939091EB
:1001F000C60080910A018F5F877080930A01ECE04E
:10020000F1E0E80FF11D9083FF91EF919F918F91A5
:100210000F900FBE0F901F9018951F920F920FB660
:100220000F9211248F939F93EF93FF93909100016E
:1002300080910101981771F0809101018F5F8770A3
:1002400080930101E2E0F1E0E80FF11D80818093ED
:10025000C60005C0E1ECF0E080818F7D8083FF91D6
:10026000EF919F918F910F900FBE0F901F90189557
:1002700090910A0180910B019817D1F380910B01A5
:100280008F5F877080930B01ECE0F1E0E80FF11DC8
:1002900080810895209100012F5F277090910101C6
:1002A0002917E1F3E2E0F1E0E20FF11D80832093F2
:1002B0000001E1ECF0E08081806280830895F89491
:0202C000FFCF6E
:00000001FF
