:100000000C9434000C9453000C9451000C94650132
:100010000C9451000C949F010C9451000C945100CD
:100020000C9451000C9451000C9451000C9451000C
:100030000C9451000C9451000C94D9010C94510073
:100040000C9451000C9451000C94CA020C949F0221
:100050000C9451000C9451000C9451000C945100DC
:100060000C9451000C94510011241FBECFEFD8E026
:10007000DEBFCDBF11E0A0E0B1E0E4E7F6E002C0F2
:1000800005900D92A030B107D9F711E0A0E0B1E0E2
:1000900001C01D92A633B107E1F70E9462000C94E3
:1000A00038030C9400001F920F920FB60F92112488
:1000B0008F9381E0809335018F910F900FBE0F9049
:1000C0001F901895CF92DF92EF92FF920F931F939C
:1000D000CF93DF930E942D010E94A100789480E0CD
:1000E0000E94B4000E94A800C1E3D1E08E010F5F1E
:1000F0001F4FEE24FF246894E1F8EC0EFD1E0F2E36
:10010000F3E0CF2EDD24F02DCC0EDD1E80913501E5
:100110008130A9F410923501CE010E94DA005F9A75
:1001200088810E94ED02F80180810E94ED02F701B2
:1001300080810E94ED02F60180810E94ED025F98AD
:10014000E5CFE9E6F0E0808182608083E89A089557
:100150005F9A8FEF9DE3A9E481509040A040E1F7C2
:1001600000C000005F980895EF92FF921F93CF9315
:10017000DF93182FC82FD0E0C059DE4F82E40E94D1
:1001800016038DE40E94160381EE0E94160380E0A0
:100190000E941603812F0E9416037E018F2D0E945C
:1001A00016038C2F0E941603DF91CF911F91FF90B1
:1001B000EF900895CF92DF92EF92FF920F931F93EB
:1001C000DF93CF93CDB7DEB76F970FB6F894DEBF4E
:1001D0000FBECDBF6C0182E40E9416038DE40E9425
:1001E000160382EE0E94160380E00E94160380E050
:1001F0000E94160381E00E94160381E70E94160305
:100200000E9402038234E1F78E010F5F1F4FEE243C
:10021000FF246894E5F8EC0EFD1E0E940203F8012D
:1002200081938F01EE15FF05C1F78F81F601808361
:1002300088858183898582838A8583836F960FB6BB
:10024000F894DEBF0FBECDBFCF91DF911F910F910C
:10025000FF90EF90DF90CF9008951092C50097E641
:100260009093C40082E08093C00028E92093C100ED
:1002700026E02093C200299A209A289A5C9A539AE1
:100280005B9A84BD85BD97BDE8E6F0E08081816022
:100290008083ABE6B0E08C9182608C938081846037
:1002A0008083EDE6F0E0808180618083109202011E
:1002B00010922401109223011092100110920F014C
:1002C000109206011092050108951F920F920FB629
:1002D0000F9211248F93EF93FF9383E08093020199
:1002E000199909C081E080930001EBE6F0E080817C
:1002F0008D7F80830AC04C9908C082E08093000102
:10030000EDE6F0E080818F7E8083EEE6F0E0808194
:100310008D7F808315BC89E086BD82E085BD87E640
:1003200087BD10922E01A99A808182608083FF91FF
:10033000EF918F910F900FBE0F901F9018951F9205
:100340000F920FB60F9211248F93EF93FF9383E0D8
:1003500080930201199909C081E080930001EBE6C6
:10036000F0E080818D7F80830AC04C9908C082E0D4
:1003700080930001EDE6F0E080818F7E8083EEE6E1
:10038000F0E080818D7F808315BC89E086BD82E0AE
:1003900085BD87E687BD10922E01A99A8081826073
:1003A0008083FF91EF918F910F900FBE0F901F9060
:1003B00018951F920F920FB60F9211248F939F934F
:1003C000EF93FF93809102018230D9F1833009F4D9
:1003D0004AC0813009F0A8C080910401883008F536
:1003E00080910101813019F0823081F408C0809140
:1003F000030180FF02C0289A09C0289807C0809195
:10040000030180FF02C05B9A01C05B9880910301E9
:10041000869580930301809104018F5F809304018E
:1004200085C080910101813019F0823021F402C031
:10043000289A01C05B9A1092010182E08093020128
:1004400075C0EEE6F0E080818D7F8083EBE6F0E022
:10045000808182608083EDE6F0E08081806180832E
:100460001092020163C087E687BD80912E0188301B
:1004700010F580912E018F5F80932E0180912D01C8
:10048000869580932D0180910001813021F082308A
:1004900009F04CC008C0199B49C080912D018068AB
:1004A00080932D0143C04C9B41C080912D018068F9
:1004B00080932D013BC080910001813019F0823082
:1004C000F1F40FC080910F018F5F877080930F014F
:1004D00090912D01E1E1F1E0E80FF11D9083D89AB0
:1004E0000EC0809105018F5F877080930501909108
:1004F0002D01E7E0F1E0E80FF11D9083DA9A109208
:10050000000184E080930201EEE6F0E080818D7FBF
:100510008083EBE6F0E0808182608083EDE6F0E0AE
:1005200080818061808302C010920201FF91EF916F
:100530009F918F910F900FBE0F901F9018951F9253
:100540000F920FB60F9211248F939F93EF93FF9307
:100550009091190180911A01981771F080911A01F8
:100560008F5F877080931A01EBE1F1E0E80FF11DD6
:1005700080818093C60005C0E1ECF0E080818F7D32
:100580008083FF91EF919F918F910F900FBE0F90FD
:100590001F9018951F920F920FB60F9211248F93F0
:1005A0009F93EF93FF938091C60080932D018091DC
:1005B00023018F5F87708093230190912D01E5E2E5
:1005C000F1E0E80FF11D9083FF91EF919F918F91E2
:1005D0000F900FBE0F901F901895209119012F5F5B
:1005E000277090911A012917E1F3EBE1F1E0E20F96
:1005F000F11D808320931901E1ECF0E0808180629D
:100600008083089590910501809106019817D1F398
:10061000809106018F5F877080930601109202011E
:10062000E7E0F1E0E80FF11D80810895909102016B
:100630009923E1F791E090930201EDE6F0E09081DB
:100640009F7E9083809303011092040185B58D7F76
:1006500085BD16BCA99A85B5826085BD5B9882E090
:1006600080930101EEE6F0E080818260808308954E
:04067000F894FFCF2C
:00000001FF
