S01C000076345F434F325F4D505F42545F4D55585F4144432E73726563CA
S11300000C9434000C9453000C9451000C94510043
S11300100C9451000C9451000C9451000C94510018
S11300200C9451000C9451000C9451000C94EC016C
S11300300C9451000C9451000C9451000C945100F8
S11300400C9451000C9451000C9401050C941D0562
S11300500C9451000C944B010C9451000C945100DD
S11300600C9451000C94510011241FBECFEFD8E022
S1130070DEBFCDBF11E0A0E0B1E0E8E4FBE002C0E8
S113008005900D92A63FB107D9F722E0A6EFB1E0A3
S113009001C01D92AE33B207E1F70E9462000C94D6
S11300A0A2050C9400001F920F920FB60F92112418
S11300B08F9381E0809331028F910F900FBE0F9048
S11300C01F9018958CE090E00E94EB048AB1806642
S11300D08AB90E9433030E948C030E9486010E9405
S11300E037010E94FC030E949D01219A789480E0CC
S11300F00E9473040E941E0284E090E00E94530256
S113010060E070E081E00E94B10160E070E082E0B4
S11301100E94B10160E070E083E00E94B10160E000
S113012070E080E00E94B10181E08093310210927E
S113013027021092260280931D020F2EFDE2EF2E5D
S1130140F2E0FF2EF02D11E080913102813049F56B
S11301500E94230490932E0280932D0289E292E060
S11301600E94970480911D028130D9F410932802D3
S113017080E00E948D0180912E020E945805F701B3
S113018080810E945805C9E2D2E088810E94580506
S113019089810E9458058A810E9458058B810E949A
S11301A0580582E00E94CD01909325028093240299
S11301B0CC9748F10E94420160E070E082E00E9426
S11301C0B1010E9470019093230280932202823530
S11301D0934018F0812F0E94030480912202909191
S11301E02302885C91098A38924018F483E00E94C3
S11301F003048091220290912302883C910518F413
S113020080E00E940304E9E2F2E0608170E0762F6E
S113021066278181682B7093330260933202428196
S113022050E0542F44278381482B50933502409348
S11302303402209126023091270280912D02909160
S11302402E020E94860283E00E94CD019093210237
S113025080932002449709F077CF60E070E083E058
S11302600E94B10180911D020E9408036DCFECE74A
S1130270F0E0808180648083EAE7F0E080818E682A
S113028080830895EAE7F0E080818064808381E0E0
S11302908093080208951F920F920FB60F921124B3
S11302A08F939F93EF93FF938091780090917900BF
S11302B0E091F701EF5FE770E093F701F0E0EE0FF4
S11302C0FF1FE850FE4F9183808310920802FF9134
S11302D0EF919F918F910F900FBE0F901F901895E3
S11302E09091F7018091F6019817D1F38091F6016E
S11302F08F5F87708093F601E091F601F0E0EE0FD6
S1130300FF1FE850FE4F808191810895E9E6F0E0F7
S1130310808182608083E89A08959BB19F799BB91C
S1130320823031F0833031F0813031F45D9A0895B8
S11303305E9A08955D9A5E9A08958DE08093810097
S1130340109285001092840080ED93E090938900D0
S113035080938800EFE6F0E0808182608083B19A28
S11303600895813059F028F0823069F0833081F0AB
S11303700895709339026093380208957093370298
S113038060933602089570933D0260933C02089591
S113039070933B0260933A020895813059F028F03B
S11303A0823069F0833081F014C0809138029091DA
S11303B03902089580913602909137020895809110
S11303C03C0290913D02089580913A0290913B0243
S11303D0089580E090E008951F920F920FB60F9257
S11303E011248F939F938091380290913902019642
S11303F090933902809338028091360290913702AB
S11304000196909337028093360280913C0290913A
S11304103D02019690933D0280933C0280913A0202
S113042090913B02019690933B0280933A029F91F4
S11304308F910F900FBE0F901F901895CF93C4E02B
S113044080E80E94600389E091E00E94D6036DE099
S113045080E00E949C038FE493EC0197F1F700C0C5
S1130460000086E391E00E94D6038FE493EC0197A9
S1130470F1F700C0000086E391E00E94D6038FE408
S113048093EC0197F1F700C0000086E391E00E942D
S1130490D6038FE493EC0197F1F700C00000C1503C
S11304A079F6CF9108950F931F93CF93DF938C0127
S11304B0109237021092360280E80E9460038AE1AB
S11304C091E00E94D60301151105D9F0C0913602BE
S11304D0D091370280EC0E946003C8018C1B9D0BF5
S11304E00E94E50384E691E00E94D60363E081E084
S11304F00E949C038CE291E00E94D6030C171D0716
S113050029F7DF91CF911F910F910895CF92DF9238
S1130510EF92FF920F931F93CF93DF93EC017B0134
S11305206A018901809136029091370285309105E4
S113053078F480E80E94600388E391E00E94D60387
S113054080EC0E9460038AE491E00E94D60357C0C5
S11305508A30910590F480E80E9460038CE591E074
S11305600E94D60380EC0E946003CE010E94E50342
S11305708DE691E00E94D60342C08F30910590F43D
S113058080E80E9460038FE791E00E94D60380EC2C
S11305900E946003C7010E94E50380E991E00E9484
S11305A0D6032DC08431910590F480E80E94600345
S11305B081EA91E00E94D60380EC0E946003C601A8
S11305C00E94E50380E991E00E94D60318C0499790
S11305D090F480E80E94600382EB91E00E94D603CD
S11305E080EC0E946003C8010E94E50380E991E069
S11305F00E94D60304C01092370210923602DF9193
S1130600CF911F910F91FF90EF90DF90CF900895BD
S113061081110FC080E80E94600382EC91E00E9487
S1130620D60380EC0E94600383ED91E00E94D60320
S113063010C0813071F480E80E94600382EC91E084
S11306400E94D60380EC0E94600384EE91E00E9435
S1130650D6032FEB87E299E0215080409040E1F7E8
S113066000C0000008951092B9008AE28093B80097
S113067084E08093BC000895ECEBF0E09081906AF4
S1130680908390819923ECF78093BB00ECEBF0E02E
S11306908081806C808380818823ECF70895ECEB63
S11306A0F0E080818069808308958093BB0084ECAE
S11306B08093BC00ECEBF0E080818823ECF7089594
S11306C01F93CF93DF93C82F8EE40E943C031C2F0B
S11306D0107FD12FD8608D2F0E945503812F8C60FD
S11306E00E9455038D2F0E94550380E1C89FE001AD
S11306F01124DC2FD8608D2F0E9455038C2F8C6021
S11307000E9455038D2F8B7F0E9455030E944F0337
S1130710DF91CF911F91089583E30E94600382E3E8
S11307200E94600388E20E9460038CE00E946003E0
S113073081E00E9460030895813029F480E8860FE7
S11307400E9460030895823021F480EC860F0E9499
S1130750600308951F93CF93DF93C82F8EE40E9404
S11307603C031C2F107FD12FD9608D2F0E9455037D
S1130770812F8D600E9455038D2F0E94550380E1C7
S1130780C89FE0011124DC2FD9608D2F0E945503EE
S11307908C2F8D600E9455038D2F8B7F0E945503F3
S11307A00E944F03DF91CF911F910895CF93DF9360
S11307B0EC018881882331F021960E94AA03899153
S11307C08111FBCFDF91CF910895CF93DF9300D0B8
S11307D000D0CDB7DEB74AE0BE016F5F7F4F0E9405
S11307E06D05CE0101960E94D6030F900F900F90D5
S11307F00F90DF91CF91089588B18E6088B987B149
S11308008E6087B9089598B19E6098B9823081F05E
S113081028F4882349F0813049F00895843069F040
S113082048F0853069F008954198089542980895F4
S1130830439808954298419808954398429808959A
S1130840439841980895EF92FF920F931F93CF938B
S1130850DF93CDB7DEB762970FB6F894DEBF0FBE55
S1130860CDBF89E0E0E0F1E0DE01119601900D9248
S11308708A95E1F77E018AE0E80EF11C89E0F70130
S113088011928A95E9F781E00E948D018E010F5F34
S11308901F4FF80181918F010E9458050E151F0505
S11308A0C1F78E01065F1F4F7E01F3E1EF0EF11CCD
S11308B00E944705F80181938F01EE15FF05C1F7EA
S11308C08C8590E0982F88272D85822B62960FB611
S11308D0F894DEBF0FBECDBFDF91CF911F910F9172
S11308E0FF90EF9008951F93CF93DF93182FC82F95
S11308F0D0E0C059DE4F82E00E948D0182E40E9464
S113090058058DE40E94580581EE0E94580580E048
S11309100E945805812F0E9458058D2F0E9458056A
S11309208C2F0E945805DF91CF911F910895CF928B
S1130930DF92EF92FF920F931F93CF93DF93CDB784
S1130940DEB76F970FB6F894DEBF0FBECDBF6C0154
S113095082E00E948D0182E40E9458058DE40E9489
S1130960580582EE0E94580580E00E94580580E0F8
S11309700E94580581E00E94580581E70E945805AD
S11309800E9447058234E1F78E010F5F1F4F7E01FD
S113099080E2E80EF11C0E944705F80181938F0163
S11309A0EE15FF05C1F78F81F60180838885818369
S11309B0898582838A8583836F960FB6F894DEBF18
S11309C00FBECDBFDF91CF911F910F91FF90EF909C
S11309D0DF90CF9008959093C5008093C40082E087
S11309E08093C00088E98093C10086E08093C200B0
S11309F010921302109214021092090210920A0229
S1130A0008951F920F920FB60F9211248F93EF93B4
S1130A10FF938091C600E0911402EF5FE770E093CA
S1130A201402F0E0EB5EFD4F8083FF91EF918F9114
S1130A300F900FBE0F901F9018951F920F920FB634
S1130A400F9211248F939F93EF93FF9390910A0237
S1130A5080910902981769F0E0910902EF5FE7704D
S1130A60E0930902F0E0E55FFD4F80818093C600CA
S1130A7005C0E1ECF0E080818F7D8083FF91EF91F0
S1130A809F918F910F900FBE0F901F90189590918A
S1130A901402809113029817D1F3E0911302EF5FCF
S1130AA0E770E0931302F0E0EB5EFD4F8081089560
S1130AB020910A022F5F2770909109022917E1F310
S1130AC0E22FF0E0E55FFD4F808320930A02E1EC22
S1130AD0F0E08081806280830895BB274A3031F43E
S1130AE0992322F4BDE2909581959F4F0C9479054A
S1130AF0BB27FB015527AA27880F991FAA1FA417F4
S1130B0010F0A41B83955051B9F7A05DAA3308F0E7
S1130B10A95DA193009779F7B111B1931192CB011B
S1130B200C949205DC01FC01672F71917723E1F7A6
S1130B30329704C07C916D9370836291AE17BF07A6
S10B0B40C8F30895F894FFCFF7
S1130B48FF0186000000000079496E696369616CE1
S1130B58697A616E646F2020200043616C656E744D
S1130B68616E646F202020202020200020536567B8
S1130B782E20526573742E002020204D656469640C
S1130B886F72206465202020200063616C696461B1
S1130B98642064656C20616972652000434F3220CB
S1130BA820202020202020202020202000207070B9
S1130BB86D202020202020202020202020200050CC
S1130BC84D20322E352020202020202020202000D7
S1130BD82070706D2020202020202020202020201C
S1130BE800504D203130202020202020202020209B
S1130BF82000434F202020202020202020202020B7
S1130C08200045737461646F3A202020202020203E
S1130C18202000446573636F6E65637461646F209C
S1130C2820202000436F6E65637461646F20202068
S1090C3820202020000032
S9030000FC
