S01C000076345F434F325F4D505F42545F4D55585F4144432E73726563CA
S11300000C9434000C9453000C9451000C94510043
S11300100C9451000C9451000C9451000C94510018
S11300200C9451000C9451000C9451000C94070250
S11300300C9451000C9451000C9451000C945100F8
S11300400C9451000C9451000C94CB050C94EA05CB
S11300500C9451000C9461010C9451000C945100C7
S11300600C9451000C94510011241FBECFEFD8E022
S1130070DEBFCDBF11E0A0E0B1E0E6E0FDE002C0EC
S113008005900D92AE3FB107D9F712E0AEEFB1E0A3
S113009001C01D92A234B107E1F70E9462000C94E2
S11300A081060C9400001F920F920FB60F92112438
S11300B08F9381E0809339028F910F900FBE0F9040
S11300C01F9018956F927F928F929F92AF92BF92DA
S11300D0CF92DF92EF92FF921F93CF93DF938CE046
S11300E090E00E94B5058AB1806E8AB90E945E03D1
S11300F00E942A040E949C010E944D010E943A041D
S11301000E94B401219A789480E00E94BB0481E4A7
S11301100E943A050E94390284E090E00E947A022B
S113012081E060E070E00E94C80182E060E070E07D
S11301300E94C80183E060E070E00E94C80180E092
S113014060E070E00E94C801C1E3D2E011E00F2E2C
S1130150F5E3EF2EF2E0FF2EF02D6E010894C11CA2
S1130160D11CAA24BB246894A1F8AC0EBD1E0F2E8A
S1130170F3E08F2E9924F02D8C0E9D1E0F2EFEE29F
S11301806F2EF2E07F2EF02D809139028130C9F577
S1130190109239020E9463049093360280933502D0
S11301A0CE010E94E4040E945F0590932F02809385
S11301B02E0280912502813021F51093300280E0D7
S11301C00E94A301809136020E942706F7018081D4
S11301D00E94270688810E942706F60180810E94DA
S11301E02706F50180810E942706F40180810E9480
S11301F0270680912F020E942706F30180810E9426
S1130200270682E00E94E50190932D0280932C0240
S11302108C33910558F10E94580182E060E070E04F
S11302200E94C8010E94860190932B0280932A02A7
S1130230F3E082359F0718F0812F0E9441048091DA
S11302402A0290912B02885C904022E08A3892071F
S113025018F483E00E94410480912A0290912B02B9
S1130260883C910518F480E00E9441040E94C00279
S113027083E00E94E501909329028093280284314F
S1130280910509F081CF83E060E070E00E94C8012D
S1130290809125020E94330377CFECE7F0E0808160
S11302A081648083EAE7F0E080818E68808308952A
S11302B0EAE7F0E080818064808381E0809310022B
S11302C008951F920F920FB60F9211248F939F934C
S11302D0EF93FF938091780090917900E091FE0173
S11302E0EF5FE770E093FE01F0E0EE0FFF1FE050D8
S11302F0FE4F9183808310921002FF91EF919F91A2
S11303008F910F900FBE0F901F9018959091FE0142
S11303108091FF019817D1F38091FF018F5F87705F
S11303208093FF01E091FF01F0E0EE0FFF1FE0502A
S1130330FE4F808191810895E9E6F0E0808182603A
S11303408083E89A08955F989BB19F799BB9823026
S113035031F0833031F0813031F45D9A08955E9A42
S113036008955D9A5E9A08958DE0809381001092BD
S113037085001092840080ED93E09093890080932F
S11303808800EFE6F0E0808182608083B19A08956E
S1130390813061F0813028F0823069F08330A1F43B
S11303A00FC070933D0260933C02089570933B022A
S11303B060933A0208957093410260934002089555
S11303C070933F0260933E020895813061F0813062
S11303D028F0823069F08330A9F40FC020913C02E8
S11303E030913D0211C020913A0230913B020CC081
S11303F0209140023091410207C020913E02309189
S11304003F0202C020E030E0822F932F08951F9214
S11304100F920FB60F9211248F939F9380913C02F9
S113042090913D02019690933D0280933C0280910D
S11304303A0290913B02019690933B0280933A02D8
S113044080914002909141020196909341028093E1
S1130450400280913E0290913F02019690933F02A8
S113046080933E029F918F910F900FBE0F901F902B
S11304701895EF92FF921F93CF93DF9314E00F2E02
S1130480F0E0EF2EF1E0FF2EF02DC1E1D1E080E8A5
S11304900E94E903C7010E94BE0380E06DE00E9450
S11304A01C048FE493EC0197F1F700C00000CE0127
S11304B00E94BE038FE493EC0197F1F700C00000A3
S11304C0CE010E94BE038FE493EC0197F1F700C0C4
S11304D00000CE010E94BE038FE493EC0197F1F774
S11304E000C00000115099F6DF91CF911F91FF9049
S11304F0EF900895CF92DF92EF92FF920F931F93A4
S1130500CF93DF938C0181E060E070E00E94C8012A
S113051080E80E94E90383E191E00E94BE03011593
S1130520110529F10F2EF5E2EF2EF1E0FF2EF02D4B
S11305300F2EFEE2CF2EF1E0DF2EF02D81E00E949F
S1130540E501EC0180EC0E94E903C8018C1B9D0BC2
S11305500E94CD03C7010E94BE0381E063E00E94B4
S11305601C04C6010E94BE030C171D0739F7DF9156
S1130570CF911F910F91FF90EF90DF90CF9008954E
S113058081E00E94E5018530910578F480E80E94BD
S1130590E9038AE391E00E94BE0380EC0E94E90330
S11305A08CE491E00E94BE0308958A30910598F48A
S11305B080E80E94E9038EE591E00E94BE0380EC8E
S11305C00E94E9038CE291E00E94CD038FE691E062
S11305D00E94BE0308958F30910598F480E80E942C
S11305E0E90381E891E00E94BE0380EC0E94E903E4
S11305F080E991E00E94CD0382E991E00E94BE036C
S113060008958431910598F480E80E94E90383EA0F
S113061091E00E94BE0380EC0E94E90384EF91E024
S11306200E94CD0382E991E00E94BE0308958931BE
S1130630910598F480E80E94E90384EB91E00E941C
S1130640BE0380EC0E94E90388E592E00E94CD039A
S113065082E991E00E94BE03089581E060E070E0C9
S11306600E94C8010895882379F480E80E94E90370
S113067084EC91E00E94BE0380EC0E94E90385EDC6
S113068091E00E94BE0310C0813071F480E80E94A2
S1130690E90384EC91E00E94BE0380EC0E94E9032C
S11306A086EE91E00E94BE038FEB97E2A9E08150B1
S11306B09040A040E1F700C0000008951092B900F6
S11306C08AE28093B80084E08093BC000895ECEB48
S11306D0F0E09081906A908390819923ECF7809365
S11306E0BB00ECEBF0E08081806C80838081882308
S11306F0ECF70895ECEBF0E0808180698083089545
S11307008093BB0084EC8093BC00ECEBF0E0808130
S11307108823ECF708950F931F93CF93DF93182F3B
S11307208EE40E946703012F007F802F89600E945E
S113073080030D60802F0E948003802F897F0E9498
S11307408003C12FD0E0C295D295D07FDC27C07F33
S1130750DC279E012960822F0E948003CE018D60D8
S1130760182F0E948003812F8B7F0E9480030E9498
S11307707A03DF91CF911F910F910895CF93DF9367
S1130780EC018881882331F021960E948B038991A2
S11307908823D9F7DF91CF9108950F931F93DF93A7
S11307A0CF9300D000D0CDB7DEB78E010F5F1F4FBF
S11307B0B8014AE050E00E943C06C8010E94BE0312
S11307C00F900F900F900F90CF91DF911F910F9189
S11307D008950F931F93CF93DF93182F8EE40E94F5
S11307E06703012F007F802F88600E9480030C60C4
S11307F0802F0E948003802F887F0E948003C12F56
S1130800D0E0C295D295D07FDC27C07FDC279E0143
S11308102860822F0E948003CE018C60182F0E94D2
S11308208003812F8B7F0E9480030E947A03DF91D3
S1130830CF911F910F910895813029F4862F80580C
S11308400E94E9030895823021F4862F80540E9487
S1130850E903089583E30E94E90382E30E94E90324
S113086088E20E94E9038CE00E94E90381E00E948F
S1130870E90308958BB1877C8BB98AB188638AB9FF
S113088008959BB1977C9BB9823091F0833028F412
S1130890882351F08130B1F409C0843071F0843080
S11308A048F0853079F40CC05B9A08955C9A0895F9
S11308B05D9A08955C9A5B9A08955D9A5C9A08958E
S11308C05D9A5B9A0895EF92FF920F931F93DF93C3
S11308D0CF93CDB7DEB762970FB6F894DEBF0FBEE5
S11308E0CDBFDE011196E4EFF1E089E001900D92B5
S11308F08150E1F70F2EFAE0EF2EFF24F02DEC0EDD
S1130900FD1E89E0F70111928A95E9F781E00E94C2
S1130910A3018E010F5F1F4FF80181918F010E9487
S113092027060E151F05C1F78E01065F1F4F0F2EF8
S1130930F3E1EF2EFF24F02DEC0EFD1E0E941506B0
S1130940F80181938F01EE15FF05C1F79C8580E0C6
S11309502D8530E0282B392B822F932F62960FB6EA
S1130960F894DEBF0FBECDBFCF91DF911F910F91E1
S1130970FF90EF900895EF92FF921F93CF93DF9330
S1130980182FC82FD0E0C059DE4F82E00E94A30187
S113099082E40E9427068DE40E94270681EE0E94CD
S11309A0270680E00E942706812F0E9427067E01E9
S11309B08F2D0E9427068C2F0E942706DF91CF914E
S11309C01F91FF90EF900895CF92DF92EF92FF92E4
S11309D00F931F93DF93CF93CDB7DEB76F970FB607
S11309E0F894DEBF0FBECDBF6C0182E00E94A3016C
S11309F082E40E9427068DE40E94270682EE0E946C
S1130A00270680E00E94270680E00E94270681E0F6
S1130A100E94270681E70E9427060E941506823459
S1130A20E1F78E010F5F1F4FEE24FF246894E5F871
S1130A30EC0EFD1E0E941506F80181938F01EE1540
S1130A40FF05C1F78F81F6018083888581838985BD
S1130A5082838A8583836F960FB6F894DEBF0FBEB8
S1130A60CDBFCF91DF911F910F91FF90EF90DF9059
S1130A70CF9008951F93182F83E00E94A3018FEF56
S1130A800E94270681E00E94270688E70E94270625
S1130A90812F0E94270680E00E94270680E00E94A2
S1130AA0270680E00E94270680E00E94270627E8A8
S1130AB03FEF822F811B0E9427061F910895EF921A
S1130AC0FF920F931F93DF93CF93CDB7DEB7289791
S1130AD00FB6F894DEBF0FBECDBF83E00E94A30122
S1130AE08FEF0E94270681E00E94270686E80E9475
S1130AF0270680E00E94270680E00E94270680E007
S1130B000E94270680E00E94270680E00E942706B4
S1130B1089E70E9427060E9415068F3FE1F78E01A0
S1130B200F5F1F4F0F2EF9E0EF2EFF24F02DEC0E78
S1130B30FD1E0E941506F80181938F01EE15FF0535
S1130B40C1F73A8120E08B81280F311D822F932F2A
S1130B5028960FB6F894DEBF0FBECDBFCF91DF91BC
S1130B601F910F91FF90EF9008959093C50080938B
S1130B70C40082E08093C00088E98093C10086E0CD
S1130B808093C20010921C0210921B021092120257
S1130B901092110208951F920F920FB60F92112412
S1130BA08F939F93EF93FF939091C60080911B02C4
S1130BB08F5F877080931B02EDE1F2E0E80FF11D77
S1130BC09083FF91EF919F918F910F900FBE0F90A3
S1130BD01F9018951F920F920FB60F9211248F93A6
S1130BE09F93EF93FF9390911102809112029817B3
S1130BF071F0809112028F5F877080931202E3E19B
S1130C00F2E0E80FF11D80818093C60005C0E1EC9D
S1130C10F0E080818F7D8083FF91EF919F918F9190
S1130C200F900FBE0F901F90189590911B0280910A
S1130C301C029817D1F380911C028F5F87708093F8
S1130C401C02EDE1F2E0E80FF11D8081089520918E
S1130C5011022F5F2770909112022917E1F3E3E14B
S1130C60F2E0E20FF11D808320931102E1ECF0E049
S1130C708081806280830895FB019F01E894423063
S1130C80C4F04532B4F44A3029F497FB1EF490952D
S1130C9081959F4F642F77270E946D06805D8A336C
S1130CA00CF0895D8193CB010097A1F716F45DE206
S1130CB051931082C9010C945D06DC01FC01672F7D
S1130CC071917723E1F7329704C07C916D9370831F
S1130CD06291AE17BF07C8F30895AA1BBB1B51E16D
S1130CE007C0AA1FBB1FA617B70710F0A61BB70B98
S1130CF0881F991F5A95A9F780959095BC01CD013D
S1090D000895F894FFCFF2
S1130D06496E696369616C697A616E646F2020203B
S1130D16002E0043616C656E74616E646F20202042
S1130D2620202020002020202020202020002053C6
S1130D3665672E20526573742E002020204D65644D
S1130D4669646F72206465202020200063616C69E9
S1130D566461642064656C20616972652000434F98
S1130D663220202020202020202020202020002087
S1130D7670706D202020202020202020202020207C
S1130D8600504D20322E35202020202020202020E7
S1130D9620002070706D202020202020202020207C
S1130DA6202000504D2031302020202020202020DB
S1130DB620202000434F20202020202020202020F7
S1130DC62020200045737461646F3A20202020207F
S1130DD62020202000446573636F6E65637461642C
S1130DE66F2020202000436F6E65637461646F205A
S1110DF620202000FF0186000000000079008C
S9030000FC
