:100000000C9434000C9453000C9451000C94510047
:100010000C9451000C9451000C9451000C9451001C
:100020000C9451000C9451000C9451000C94180243
:100030000C9451000C9451000C9451000C945100FC
:100040000C9451000C9451000C9438050C945405F8
:100050000C9451000C9477010C9451000C945100B5
:100060000C9451000C94510011241FBECFEFD8E026
:10007000DEBFCDBF11E0A0E0B1E0E6EBFBE002C0E7
:1000800005900D92A43EB107D9F722E0A4EEB1E0AD
:1000900001C01D92AD32B207E1F70E9462000C94DC
:1000A000D9050C9400001F920F920FB60F921124E5
:1000B0008F9381E080931F028F910F900FBE0F905E
:1000C0001F9018958CE090E00E9422058AB180660E
:1000D0008AB90E944E030E94A7030E94B2010E94A7
:1000E00063010E9417040E94C90178940E946E0166
:1000F0000E949C01909311028093100282359340DC
:1001000018F081E00E941E0480911002909111026B
:10011000885C91098A38924018F483E00E941E049A
:100120008091100290911102883C910518F480E0B2
:100130000E941E0480E00E94AA040E944A0284E0F9
:1001400090E00E947F0260E070E081E00E94DD01AB
:1001500060E070E082E00E94DD0160E070E083E03A
:100160000E94DD0160E070E080E00E94DD0181E03E
:1001700080931F02109215021092140280930B02BA
:100180000F2EFBE1EF2EF2E0FF2EF02D11E080911B
:100190001F02813049F50E945A0490931C028093FB
:1001A0001B0287E192E00E94CE0480910B02813015
:1001B000D9F41093160280E00E94B90180911C02CC
:1001C0000E948F05F70180810E948F05C7E1D2E070
:1001D00088810E948F0589810E948F058A810E94F3
:1001E0008F058B810E948F0582E00E94F901909318
:1001F000130280931202CC9748F10E946E0160E0D6
:1002000070E082E00E94DD010E949C019093110247
:10021000809310028235934018F0812F0E941E04B3
:100220008091100290911102885C91098A38924065
:1002300018F483E00E941E04809110029091110234
:10024000883C910518F480E00E941E04E7E1F2E08A
:10025000608170E0762F66278181682B7093210280
:1002600060932002428150E0542F44278381482B21
:1002700050932302409322022091140230911502E0
:1002800080911B0290911C020E94B2028091240274
:10029000813029F482E0809324020E943E0483E0AE
:1002A0000E94F90190930F0280930E02449708F484
:1002B0006ECF60E070E083E00E94DD0180910B0270
:1002C0000E94340364CFECE7F0E080818064808397
:1002D000EAE7F0E080818E6880830895EAE7F0E045
:1002E00080818064808381E08093F60108951F926D
:1002F0000F920FB60F9211248F939F93EF93FF935A
:100300008091780090917900E091E501EF5FE770CE
:10031000E093E501F0E0EE0FFF1FEA51FE4F9183FD
:1003200080831092F601FF91EF919F918F910F9032
:100330000FBE0F901F9018959091E5018091E401F8
:100340009817D1F38091E4018F5F87708093E40167
:10035000E091E401F0E0EE0FFF1FEA51FE4F8081D3
:1003600091810895E9E6F0E0808182608083E89AD7
:1003700008959BB19F799BB9823031F0833031F081
:10038000813031F45D9A08955E9A08955D9A5E9A7F
:1003900008958DE080938100109285001092840072
:1003A00080ED93E09093890080938800EFE6F0E081
:1003B000808182608083B19A0895813059F028F05D
:1003C000823069F0833081F0089570932802609341
:1003D0002702089570932602609325020895709372
:1003E0002C0260932B02089570932A0260932902D5
:1003F0000895813059F028F0823069F0833081F01F
:1004000014C08091270290912802089580912502BE
:1004100090912602089580912B0290912C020895CC
:100420008091290290912A02089580E090E0089539
:100430001F920F920FB60F9211248F939F9380916A
:100440002702909128020196909328028093270218
:100450008091250290912602019690932602809326
:10046000250280912B0290912C02019690932C02F0
:1004700080932B028091290290912A0201969093F9
:100480002A02809329029F918F910F900FBE0F90A7
:100490001F901895CF93C4E080E80E947B0389E009
:1004A00091E00E94F1036DE080E00E94B7038FE4C9
:1004B00093EC0197F1F700C0000086E391E00E9401
:1004C000F1038FE493EC0197F1F700C0000086E39D
:1004D00091E00E94F1038FE493EC0197F1F700C0E3
:1004E000000086E391E00E94F1038FE493EC019712
:1004F000F1F700C00000C15079F6CF9108950F9335
:100500001F93CF93DF938C01109226021092250245
:1005100080E80E947B038AE191E00E94F1030115CB
:100520001105D9F0C0912502D091260280EC0E94DD
:100530007B03C8018C1B9D0B0E94000484E691E0A4
:100540000E94F10363E081E00E94B7038CE291E036
:100550000E94F1030C171D0729F7DF91CF911F911E
:100560000F910895CF92DF92EF92FF920F931F9316
:10057000CF93DF93EC017B016A0189018091250211
:10058000909126028530910578F480E80E947B03E3
:1005900088E391E00E94F10380EC0E947B038AE4EF
:1005A00091E00E94F10357C08A30910590F480E8F1
:1005B0000E947B038CE591E00E94F10380EC0E9495
:1005C0007B03CE010E9400048DE691E00E94F103BE
:1005D00042C08F30910590F480E80E947B038FE742
:1005E00091E00E94F10380EC0E947B03C7010E940E
:1005F000000480E991E00E94F1032DC0843191054F
:1006000090F480E80E947B0381EA91E00E94F1036C
:1006100080EC0E947B03C6010E94000480E991E007
:100620000E94F10318C0499790F480E80E947B0370
:1006300082EB91E00E94F10380EC0E947B03C801F1
:100640000E94000480E991E00E94F10304C010922E
:10065000260210922502DF91CF911F910F91FF90FA
:10066000EF90DF90CF90089581110EC080E80E9436
:100670007B0382EC91E00E94F10380EC0E947B03FB
:1006800083ED91E00E94F1032FEB87E299E0215086
:1006900080409040E1F700C0000008951092B9003A
:1006A0008AE28093B80084E08093BC000895ECEB6C
:1006B000F0E09081906A908390819923ECF7809389
:1006C000BB00ECEBF0E08081806C8083808188232C
:1006D000ECF70895ECEBF0E0808180698083089569
:1006E0008093BB0084EC8093BC00ECEBF0E0808155
:1006F0008823ECF708951F93CF93DF93C82F8EE4E0
:100700000E9457031C2F107FD12FD8608D2F0E947D
:100710007003812F8C600E9470038D2F0E947003E4
:1007200080E1C89FE0011124DC2FD8608D2F0E944A
:1007300070038C2F8C600E9470038D2F8B7F0E9422
:1007400070030E946A03DF91CF911F91089583E3A4
:100750000E947B0382E30E947B0388E20E947B036A
:100760008CE00E947B0381E00E947B03089581114D
:1007700005C080E8860F0E947B030895813021F434
:1007800080EC860F0E947B0308951F93CF93DF9325
:10079000C82F8EE40E9457031C2F107FD12FD960E1
:1007A0008D2F0E947003812F8D600E9470038D2F0A
:1007B0000E94700380E1C89FE0011124DC2FD96002
:1007C0008D2F0E9470038C2F8D600E9470038D2FDF
:1007D0008B7F0E9470030E946A03DF91CF911F916B
:1007E0000895CF93DF93EC018881882331F021961F
:1007F0000E94C50389918111FBCFDF91CF910895AC
:10080000CF93DF9300D000D0CDB7DEB74AE0BE0172
:100810006F5F7F4F0E94A405CE0101960E94F103F5
:100820000F900F900F900F90DF91CF91089588B1A6
:100830008E6088B987B18E6087B9089598B19E603F
:1008400098B9823081F028F4882349F0813049F04A
:100850000895843069F048F0853069F00895419832
:1008600008954298089543980895429841980895AC
:10087000439842980895439841980895CF93DF9301
:10088000D8B1C3E088B18E6088B983E294EF019754
:10089000F1F700C0000082E00E941E0483E294EFA2
:1008A0000197F1F700C00000C15061F7D8B9DF919E
:1008B000CF910895EF92FF920F931F93CF93DF9301
:1008C000CDB7DEB762970FB6F894DEBF0FBECDBFCF
:1008D00089E0E0E0F1E0DE01119601900D928A9549
:1008E000E1F77E018AE0E80EF11C89E0F701119240
:1008F0008A95E9F781E00E94B9018E010F5F1F4FD1
:10090000F80181918F010E948F050E151F05C1F717
:100910008E01065F1F4F7E01F3E1EF0EF11C0E9476
:100920007E05F80181938F01EE15FF05C1F78C85D7
:1009300090E0982F88272D85822B62960FB6F89429
:10094000DEBF0FBECDBFDF91CF911F910F91FF9002
:10095000EF9008951F93CF93DF93182FC82FD0E007
:10096000C059DE4F82E00E94B90182E40E948F05E7
:100970008DE40E948F0581EE0E948F0580E00E9429
:100980008F05812F0E948F058D2F0E948F058C2F40
:100990000E948F05DF91CF911F910895CF92DF9232
:1009A000EF92FF920F931F93CF93DF93CDB7DEB7F4
:1009B0006F970FB6F894DEBF0FBECDBF6C0182E01B
:1009C0000E94B90182E40E948F058DE40E948F0588
:1009D00082EE0E948F0580E00E948F0580E00E94D9
:1009E0008F0581E00E948F0581E70E948F050E949C
:1009F0007E058234E1F78E010F5F1F4F7E0180E29A
:100A0000E80EF11C0E947E05F80181938F01EE151E
:100A1000FF05C1F78F81F6018083888581838985F1
:100A200082838A8583836F960FB6F894DEBF0FBEEC
:100A3000CDBFDF91CF911F910F91FF90EF90DF908D
:100A4000CF9008959093C5008093C40082E0809376
:100A5000C00088E98093C10086E08093C2001092B4
:100A60000102109202021092F7011092F80108950B
:100A70001F920F920FB60F9211248F93EF93FF9353
:100A80008091C600E0910202EF5FE770E0930202FE
:100A9000F0E0ED5FFD4F8083FF91EF918F910F901C
:100AA0000FBE0F901F9018951F920F920FB60F92C6
:100AB00011248F939F93EF93FF939091F80180916E
:100AC000F701981769F0E091F701EF5FE770E093A5
:100AD000F701F0E0E750FE4F80818093C60005C02B
:100AE000E1ECF0E080818F7D8083FF91EF919F9119
:100AF0008F910F900FBE0F901F901895909102024A
:100B0000809101029817D1F3E0910102EF5FE77045
:100B1000E0930102F0E0ED5FFD4F808108952091A8
:100B2000F8012F5F27709091F7012917E1F3E22F69
:100B3000F0E0E750FE4F80832093F801E1ECF0E015
:100B40008081806280830895BB274A3031F49923E5
:100B500022F4BDE2909581959F4F0C94B005BB2780
:100B6000FB015527AA27880F991FAA1FA41710F069
:100B7000A41B83955051B9F7A05DAA3308F0A95D75
:100B8000A193009779F7B111B1931192CB010C9415
:100B9000C905DC01FC01672F71917723E1F73297DA
:100BA00004C07C916D9370836291AE17BF07C8F348
:060BB0000895F894FFCF48
:100BB600FF0186000000000079496E696369616C77
:100BC600697A616E646F2020200043616C656E74E3
:100BD600616E646F2020202020202000205365674E
:100BE6002E20526573742E002020204D65646964A2
:100BF6006F72206465202020200063616C69646147
:100C0600642064656C20616972652000434F322060
:100C1600202020202020202020202020002070704E
:100C26006D20202020202020202020202020005061
:100C36004D20322E3520202020202020202020006C
:100C46002070706D202020202020202020202020B1
:100C560000504D2031302020202020202020202030
:100C66002000434F2020202020202020202020204C
:100C7600200045737461646F3A20202020202020D4
:100C8600202000446573636F6E65637461646F2032
:040C960020202000FA
:00000001FF
