:100000000C9434000C9453000C9451000C94510047
:100010000C9451000C9451000C9451000C9451001C
:100020000C9451000C9451000C9451000C946002FB
:100030000C9451000C9451000C9451000C945100FC
:100040000C9451000C9451000C9426060C9442061A
:100050000C9451000C94BF010C9451000C9451006D
:100060000C9451000C94510011241FBECFEFD8E026
:10007000DEBFCDBF11E0A0E0B1E0E2E2FEE002C0F1
:1000800005900D92A83EB107D9F722E0A8EEB1E0A5
:1000900001C01D92A133B207E1F70E9478000C94D1
:1000A0000F070C9400001F920F920FB60F921124AD
:1000B0008F9381E0809323028F910F900FBE0F905A
:1000C0001F90189580E00E9401020E947D068134F5
:1000D00049F4809128028F5F8093280281E0809309
:1000E0000F020895823419F481E080932302089569
:1000F0002FED83E994E0215080409040E1F700C06B
:1001000000008CE090E00E9410068AB180668AB9F7
:100110000E94C6030E941F040E94FA010E94AB01C4
:100120000E948F040E94110278940E94B6010E94DE
:10013000E40190931502809314028235934018F0E5
:1001400081E00E9496048091140290911502885CCF
:1001500091098A38924018F483E00E9496048091B5
:10016000140290911502883C910518F480E00E94D9
:10017000960480E00E94220581E40E949A050E9474
:1001800092028AE090E00E94C70260E070E081E0A5
:100190000E94250260E070E082E00E94250260E09B
:1001A00070E083E00E94250260E070E080E00E9441
:1001B00025021092230210920F02C1E00E946200F9
:1001C00080912302813009F069C0109223020E94BD
:1001D000D2049093200280931F028BE192E00E9450
:1001E00046050E94BD059C01ADECBCEC0E94CB060F
:1001F0009695879596958795029790931902809387
:10020000180280911F029091200284559140909392
:10021000200280931F02809124029091250206966D
:1002200090932502809324028091260290912702C8
:100230000A96909327028093260280910F028130C4
:1002400069F5C0931A0280E00E94010280911F02AA
:10025000909120020E94B40689E091E00E94A506D8
:1002600080912402909125020E94B40689E091E0D9
:100270000E94A50680912602909127020E94B40652
:1002800089E091E00E94A5068091180290911902E0
:100290000E94B4068BE091E00E94A50682E00E94D5
:1002A00041029093170280931602CC9748F10E9466
:1002B000B60160E070E082E00E9425020E94E40145
:1002C00090931502809314028235934018F08C2F7E
:1002D0000E9496048091140290911502885C910905
:1002E0008A38924018F483E00E94960480911402A8
:1002F00090911502883C910518F480E00E949604C4
:10030000EBE1F2E0608170E0762F66278181682B57
:100310007093250260932402428150E0542F4427B9
:100320008381482B50932702409326022091180284
:100330003091190280911F02909120020E94FA02CE
:1003400080912802813009F039CF82E08093280221
:100350000E94B60433CFECE7F0E0808180648083B4
:10036000EAE7F0E080818E6880830895EAE7F0E0B4
:1003700080818064808381E08093FA0108951F92D8
:100380000F920FB60F9211248F939F93EF93FF93C9
:100390008091780090917900E091E901EF5FE7703A
:1003A000E093E901F0E0EE0FFF1FE651FE4F91836D
:1003B00080831092FA01FF91EF919F918F910F909E
:1003C0000FBE0F901F9018959091E9018091E80160
:1003D0009817D1F38091E8018F5F87708093E801CF
:1003E000E091E801F0E0EE0FFF1FE651FE4F808143
:1003F00091810895E9E6F0E0808183608083E89A46
:1004000008959BB19F799BB9823031F0833031F0F0
:10041000813031F45D9A08955E9A08955D9A5E9AEE
:1004200008958DE0809381001092850010928400E1
:1004300080ED93E09093890080938800EFE6F0E0F0
:10044000808182608083B19A0895813059F028F0CC
:10045000823069F0833081F0089570932C026093AC
:100460002B02089570932A026093290208957093D5
:10047000300260932F02089570932E0260932D0234
:100480000895813059F028F0823069F0833081F08E
:1004900014C080912B0290912C0208958091290222
:1004A00090912A02089580912F0290913002089530
:1004B00080912D0290912E02089580E090E00895A1
:1004C0001F920F920FB60F9211248F939F938091DA
:1004D0002B0290912C02019690932C0280932B0278
:1004E0008091290290912A02019690932A0280938A
:1004F000290280912F029091300201969093300250
:1005000080932F0280912D0290912E02019690935C
:100510002E0280932D029F918F910F900FBE0F900E
:100520001F901895CF93C4E080E80E94F3038DE0FC
:1005300091E00E9469046DE080E00E942F048FE446
:1005400093EC0197F1F700C000008AE391E00E946C
:1005500069048FE493EC0197F1F700C000008AE38F
:1005600091E00E9469048FE493EC0197F1F700C0D9
:1005700000008AE391E00E9469048FE493EC019704
:10058000F1F700C00000C15079F6CF9108950F93A4
:100590001F93CF93DF938C0110922A0210922902AD
:1005A00080E80E94F3038EE191E00E946904011546
:1005B0001105D9F0C0912902D0912A0280EC0E9445
:1005C000F303C8018C1B9D0B0E94780488E691E020
:1005D0000E94690463E081E00E942F0480E391E0BF
:1005E0000E9469040C171D0729F7DF91CF911F9115
:1005F0000F910895CF92DF92EF92FF920F931F9386
:10060000CF93DF937C01EB018A016901809129027C
:1006100090912A028530910578F480E80E94F303D6
:100620008CE391E00E94690480EC0E94F3038EE465
:1006300091E00E946904A1C08A30910590F480E89D
:100640000E94F30380E691E00E94690480EC0E941E
:10065000F303C7010E94780481E791E00E946904D6
:100660008CC08F309105B8F580E80E94F30383E8D1
:1006700091E00E94690480EC0E94F3039E0136958C
:1006800027953695279536952795A5ECB0E20E94DB
:10069000CB068C01129502950F7001271F70012760
:1006A000C8010E9478048AE391E00E94690428EE60
:1006B00033E0029FC001039F900D129F900D112403
:1006C0009E01281B390BC9010E94780484E991E03E
:1006D0000E94690452C084319105B8F580E80E94F7
:1006E000F30385EA91E00E94690480EC0E94F30321
:1006F0009801369527953695279536952795A5EC3B
:10070000B0E20E94CB06EC01D295C295CF70CD2706
:10071000DF70CD27CE010E9478048AE391E00E9429
:10072000690428EE33E0C29FC001C39F900DD29FA1
:10073000900D11249801281B390BC9010E947804DF
:1007400084E991E00E94690418C0499790F480E818
:100750000E94F30386EB91E00E94690480EC0E9402
:10076000F303C6010E94780484E991E00E946904C1
:1007700004C010922A0210922902DF91CF911F919A
:100780000F91FF90EF90DF90CF9008951092B900F5
:100790008AE28093B80084E08093BC000895ECEB7B
:1007A000F0E09081906A908390819923ECF7809398
:1007B000BB00ECEBF0E08081806C8083808188233B
:1007C000ECF70895ECEBF0E0808180698083089578
:1007D0008093BB0084EC8093BC00ECEBF0E0808164
:1007E0008823ECF708951F93CF93DF93C82F8EE4EF
:1007F0000E94CF031C2F107FD12FD8608D2F0E9415
:10080000E803812F8C600E94E8038D2F0E94E8038B
:1008100080E1C89FE0011124DC2FD8608D2F0E9459
:10082000E8038C2F8C600E94E8038D2F8B7F0E9441
:10083000E8030E94E203DF91CF911F91089583E3C3
:100840000E94F30382E30E94F30388E20E94F30311
:100850008CE00E94F30381E00E94F303089581116C
:1008600005C080E8860F0E94F3030895813021F4CB
:1008700080EC860F0E94F30308951F93CF93DF93BC
:10088000C82F8EE40E94CF031C2F107FD12FD96078
:100890008D2F0E94E803812F8D600E94E8038D2F29
:1008A0000E94E80380E1C89FE0011124DC2FD96099
:1008B0008D2F0E94E8038C2F8D600E94E8038D2FFE
:1008C0008B7F0E94E8030E94E203DF91CF911F918A
:1008D0000895CF93DF93EC018881882331F021962E
:1008E0000E943D0489918111FBCFDF91CF91089542
:1008F000CF93DF9300D000D0CDB7DEB74AE0BE0182
:100900006F5F7F4F0E94DA06CE0101960E94690454
:100910000F900F900F900F90DF91CF91089587B1B6
:100920008E6087B988B18E6088B9089598B19E604D
:1009300098B9823081F028F4882349F0813049F059
:100940000895843069F048F0853069F00895419841
:1009500008954298089543980895429841980895BB
:10096000439842980895439841980895CF93DF9310
:10097000D8B1C3E088B18E6088B983E294EF019763
:10098000F1F700C0000082E00E94960483E294EF39
:100990000197F1F700C00000C15061F7D8B9DF91AD
:1009A000CF910895EF92FF920F931F93CF93DF9310
:1009B000CDB7DEB762970FB6F894DEBF0FBECDBFDE
:1009C00089E0E0E0F1E0DE01119601900D928A9558
:1009D000E1F77E018AE0E80EF11C89E0F70111924F
:1009E0008A95E9F781E00E9401028E010F5F1F4F97
:1009F000F80181918F010E9490060E151F05C1F725
:100A00008E01065F1F4F7E01F3E1EF0EF11C0E9485
:100A10006C06F80181938F01EE15FF05C1F78C85F7
:100A200090E0982F88272D85822B62960FB6F89438
:100A3000DEBF0FBECDBFDF91CF911F910F91FF9011
:100A4000EF9008951F93CF93DF93182FC82FD0E016
:100A5000C059DE4F82E00E94010282E40E949006AB
:100A60008DE40E94900681EE0E94900680E00E9434
:100A70009006812F0E9490068D2F0E9490068C2F49
:100A80000E949006DF91CF911F910895CF92DF923F
:100A9000EF92FF920F931F93CF93DF93CDB7DEB703
:100AA0006F970FB6F894DEBF0FBECDBF6C0182E02A
:100AB0000E94010282E40E9490068DE40E9490064A
:100AC00082EE0E94900680E00E94900680E00E94E4
:100AD000900681E00E94900681E70E9490060E94A5
:100AE0006C068234E1F78E010F5F1F4F7E0180E2BA
:100AF000E80EF11C0E946C06F80181938F01EE153F
:100B0000FF05C1F78F81F601808388858183898500
:100B100082838A8583836F960FB6F894DEBF0FBEFB
:100B2000CDBFDF91CF911F910F91FF90EF90DF909C
:100B3000CF900895CF93C82F83E00E9401028FEFDA
:100B40000E94900681E00E94900688E70E9490062D
:100B50008C2F0E94900680E00E94900680E00E9408
:100B6000900680E00E94900680E00E94900687E850
:100B70008C1B0E949006CF910895EF92FF920F93E5
:100B80001F93CF93DF93CDB7DEB728970FB6F894B6
:100B9000DEBF0FBECDBF83E00E9401028FEF0E9437
:100BA000900681E00E94900686E80E94900680E010
:100BB0000E94900680E00E94900680E00E949006CD
:100BC00080E00E94900680E00E94900689E70E94E3
:100BD00090060E946C068F3FE1F78E010F5F1F4F5A
:100BE0007E0189E0E80EF11C0E946C06F8018193F9
:100BF0008F01EE15FF05C1F78A8190E0982F8827B5
:100C00002B81820F911D28960FB6F894DEBF0FBE80
:100C1000CDBFDF91CF911F910F91FF90EF9008957D
:100C20009093C5008093C40082E08093C00088E95F
:100C30008093C10086E08093C2001092050210925A
:100C400006021092FB011092FC0108951F920F9270
:100C50000FB60F9211248F93EF93FF938091C600EC
:100C6000E0910602EF5FE770E0930602F0E0E95FD3
:100C7000FD4F8083FF91EF918F910F900FBE0F90EA
:100C80001F9018951F920F920FB60F9211248F93F9
:100C90009F93EF93FF939091FC018091FB01981734
:100CA00069F0E091FB01EF5FE770E093FB01F0E09A
:100CB000E350FE4F80818093C60005C0E1ECF0E078
:100CC00080818F7D8083FF91EF919F918F910F9015
:100CD0000FBE0F901F90189590910602809105020B
:100CE0009817D1F3E0910502EF5FE770E0930502FA
:100CF000F0E0E95FFD4F80810895909106028091B8
:100D00000502981759F0E0910502EF5FE770E09354
:100D10000502F0E0E95FFD4F8081089580E00895CD
:100D20002091FC012F5F27709091FB012917E1F3BF
:100D3000E22FF0E0E350FE4F80832093FC01E1ECD2
:100D4000F0E08081806280830895CF93DF93EC018F
:100D50008881882331F021960E9490068991811123
:100D6000FBCFDF91CF910895CF93DF9300D000D0D8
:100D7000CDB7DEB74AE0BE016F5F7F4F0E94DA0653
:100D8000CE0101960E94A5060F900F900F900F9034
:100D9000DF91CF910895A29FB001B39FC001A39F9F
:100DA000700D811D1124911DB29F700D811D1124A4
:100DB000911D0895BB274A3031F4992322F4BDE2F6
:100DC000909581959F4F0C94E606BB27FB01552714
:100DD000AA27880F991FAA1FA41710F0A41B839598
:100DE0005051B9F7A05DAA3308F0A95DA19300970F
:100DF00079F7B111B1931192CB010C94FF06DC018C
:100E0000FC01672F71917723E1F7329704C07C9141
:100E10006D9370836291AE17BF07C8F30895F8947D
:020E2000FFCF02
:100E2200FF01860000000000792C003B00496E693A
:100E32006369616C697A616E646F2020200043618E
:100E42006C656E74616E646F20202020202020006B
:100E5200205365672E20526573742E002020204D8A
:100E6200656469646F7220646520202020006361DC
:100E72006C696461642064656C206169726520003C
:100E8200434F3220202020202020202020202020FC
:100E9200002070706D202020202020202020202083
:100EA200202000504D20322E3520202020202020CE
:100EB200202020002070706D202020202020202063
:100EC2002020202000504D203130202020202020C2
:100ED200202020202000434F2020202020202020DE
:100EE20020202020200045737461646F3A20202066
:100EF20020202020202000446573636F6E65637498
:080F020061646F202020200033
:00000001FF
