S01500004156525F55534152545F4D55582E73726563DF
S11300000C9434000C9451000C9451000C94510045
S11300100C9451000C9451000C9451000C94510018
S11300200C9451000C9451000C9451000C94510008
S11300300C9451000C9451000C9451000C945100F8
S11300400C9451000C9451000C94A8000C94CB0017
S11300500C9451000C9451000C9451000C945100D8
S11300600C9451000C94510011241FBECFEFD8E022
S1130070DEBFCDBF11E0A0E0B1E0E0E2F3E002C0FA
S113008005900D92A830B107D9F711E0A8E0B1E0CE
S113009001C01D92AD31B107E1F70E9464000C94D8
S11300A08E010C9400005F989BB19F799BB98230BC
S11300B031F0833031F0813031F45D9A08955E9AE5
S11300C008955D9A5E9A0895CF93DF938FEC90E044
S11300D00E9492008AB1806E8AB97894C0E0D1E01F
S11300E080911C010E9453008FEF93EDA0E3815097
S11300F09040A040E1F700C000000E94F6000E947A
S11301000801CE010E941D0180911C010E942C0156
S113011080911C018F5F80931C01843009F7109239
S11301201C01DECF9093C5008093C40082E08093CD
S1130130C00088E98093C10086E08093C2001092D9
S113014013011092120110920901109208010895EE
S11301501F920F920FB60F9211242F938F939F9398
S1130160EF93FF939091C600809112018F5F877087
S11301708093120120911301E4E1F1E0E80FF11DF5
S11301809083FF91EF919F918F912F910F900FBECC
S11301900F901F9018951F920F920FB60F92112473
S11301A08F939F93EF93FF9390910801809109019E
S11301B0981771F0809109018F5F8770809309010E
S11301C0EAE0F1E0E80FF11D80818093C60005C0EC
S11301D0E1ECF0E080818F7D8083FF91EF919F912E
S11301E08F910F900FBE0F901F9018959091120150
S11301F0809113019817D1F3809113018F5F877059
S113020080931301E4E1F1E0E80FF11D808108958A
S1130210209108012F5F2770909109012917E1F3BC
S1130220EAE0F1E0E20FF11D808320930801E1ECA4
S1130230F0E08081806280830895CF93DF93EC01A6
S11302408881882331F021960E94080189918823AE
S1130250D9F7DF91CF9108950F931F93DF93CF9335
S113026000D000D0CDB7DEB790E08E010F5F1F4FF6
S1130270B8014AE050E00E944901C8010E941D01F2
S11302800F900F900F900F90CF91DF911F910F91CE
S11302900895FB019F01E8944230C4F04532B4F460
S11302A04A3029F497FB1EF4909581959F4F642F53
S11302B077270E947A01805D8A330CF0895D8193EF
S11302C0CB010097A1F716F45DE251931082C901A6
S11302D00C946A01DC01FC01672F71917723E1F72B
S11302E0329704C07C916D9370836291AE17BF07FF
S11302F0C8F30895AA1BBB1B51E107C0AA1FBB1F6B
S1130300A617B70710F0A61BB70B881F991F5A959D
S1130310A9F780959095BC01CD010895F894FFCF7D
S10B03202043616E616C2000B2
S9030000FC
