S017000076335F434F325F4D505F42545F48572E7372656352
S11300000C9434000C9453000C9451000C94510043
S11300100C9451000C9451000C9451000C94510018
S11300200C9451000C9451000C9451000C94510008
S11300300C9451000C9451000C9451000C945100F8
S11300400C9451000C9451000C94F2010C94150280
S11300500C9451000C9451000C9451000C945100D8
S11300600C9451000C94510011241FBECFEFD8E022
S1130070DEBFCDBF11E0A0E0B1E0E2EDF4E002C0EC
S113008005900D92AA30B107D9F711E0AAE0B1E0CA
S113009001C01D92A532B107E1F70E9462000C94E1
S11300A067020C9400001F920F920FB60F92112456
S11300B08F9381E0809324018F910F900FBE0F9056
S11300C01F901895AF92BF92CF92DF92EF92FF925A
S11300D00F931F93CF93DF938CE090E00E94DC0199
S11300E00E94C600579A8AB1806E8AB9789480E0DB
S11300F00E944B010E94CD00CEE1D1E002E211E06A
S11301007E010894E11CF11CCC24DD246894C1F820
S1130110CC0EDD1E0F2EF3E0AF2EBB24F02DAC0E63
S1130120BD1E80912401813079F5109224010E9432
S1130130EA009093230180932201CE010E947D0165
S11301405F9A80E00E94D9008FE996E8A1E081508F
S11301509040A040E1F700C00000809123010E947C
S11301605202D8018C910E94520288810E9452024C
S1130170F70180810E945202D6018C910E945202A2
S1130180F50180810E9452025F98CBCFE9E6F0E04E
S1130190808182608083E89A08955F9A8FEF9DE35F
S11301A0A9E481509040A040E1F700C000005F98AE
S11301B008955F989BB19F799BB9823031F0833069
S11301C031F0813031F45D9A08955E9A08955D9A14
S11301D05E9A0895EF92FF920F931F93DF93CF934C
S11301E0CDB7DEB762970FB6F894DEBF0FBECDBFB2
S11301F0DE011196E0E0F1E089E001900D9281507A
S1130200E1F70F2EFAE0EF2EFF24F02DEC0EFD1E89
S113021089E0D7011D928A95E9F781E00E94D9000F
S11302208FEF94E3ACE081509040A040E1F700C030
S113023000008E010F5F1F4FD8018D918D010E9428
S113024052020E151F05C1F78E01065F1F4F0F2EB8
S1130250F3E1EF2EFF24F02DEC0EFD1E0E94400270
S1130260F80181938F01EE15FF05C1F79C8580E0AD
S11302702D8530E0282B392B822F932F62960FB6D1
S1130280F894DEBF0FBECDBFCF91DF911F910F91C8
S1130290FF90EF900895EF92FF921F93CF93DF9317
S11302A0182FC82FD0E0C059DE4F82E00E94D90039
S11302B08FEF94E3ACE081509040A040E1F700C0A0
S11302C0000082E40E9452028DE40E94520281EEF8
S11302D00E94520280E00E945202812F0E94520228
S11302E07E018F2D0E9452028C2F0E945202DF91B8
S11302F0CF911F91FF90EF900895CF92DF92EF92EC
S1130300FF920F931F93DF93CF93CDB7DEB76F9711
S11303100FB6F894DEBF0FBECDBF6C0182E00E9421
S1130320D9008FEF94E3ACE081509040A040E1F716
S113033000C0000082E40E9452028DE40E94520236
S113034082EE0E94520280E00E94520280E00E94EB
S1130350520281E00E94520281E70E9452020E94EE
S113036040028234E1F78E010F5F1F4FEE24FF2419
S11303706894E5F8EC0EFD1E0E944002D8018D93AE
S11303808D01AE15BF05C1F78F81F6018083888585
S11303908183898582838A8583836F960FB6F894D7
S11303A0DEBF0FBECDBFCF91DF911F910F91FF90A4
S11303B0EF90DF90CF9008959093C5008093C40090
S11303C082E08093C00088E98093C10086E0809336
S11303D0C200109215011092140110920B01109298
S11303E00A0108951F920F920FB60F9211242F93B2
S11303F08F939F93EF93FF939091C6008091140184
S11304008F5F87708093140120911501E6E1F1E07C
S1130410E80FF11D9083FF91EF919F918F912F91A0
S11304200F900FBE0F901F9018951F920F920FB64A
S11304300F9211248F939F93EF93FF9390910A014E
S113044080910B01981771F080910B018F5F877079
S113045080930B01ECE0F1E0E80FF11D80818093C3
S1130460C60005C0E1ECF0E080818F7D8083FF91C0
S1130470EF919F918F910F900FBE0F901F90189541
S113048090911401809115019817D1F38091150171
S11304908F5F877080931501E6E1F1E0E80FF11DAD
S11304A08081089520910A012F5F277090910B019C
S11304B02917E1F3ECE0F1E0E20FF11D80832093D2
S11304C00A01E1ECF0E08081806280830895F89471
S10504D0FFCF58
S10D04D2FF0186000000000079001D
S9030000FC
