S01A000046696E616C436F6E74616D696E6163696F6E2E73726563DD
S11300000C9434000C94AB000C9451000C943B0100
S11300100C948B010C9451000C9451000C945100DD
S11300200C9451000C9451000C9451000C94510008
S11300300C9451000C9451000C94DB010C9451006D
S11300400C9451000C9451000C9439030C940E033D
S11300500C9451000C9451000C9451000C945100D8
S11300600C9451000C94510011241FBECFEFD8E022
S1130070DEBFCDBF11E0A0E0B1E0E0E5F7E002C0F3
S113008005900D92AA30B107D9F711E0AAE0B1E0CA
S113009001C01D92A035B107E1F70E94BA000C948B
S11300A0A6030C940000E9E6F0E08081836080837D
S11300B0E89A0895EF92FF920F931F93DF93CF93E3
S11300C0CDB7DEB762970FB6F894DEBF0FBECDBFD3
S11300D0DE011196E0E0F1E089E001900D9281509B
S11300E0E1F7FE013A9689E0DF011D928A95E9F76E
S11300F08E010F5F1F4F7F01F80181918F010E94D4
S113010085030E151F05C1F78E01065F1F4F0F2EC5
S1130110F3E1EF2EFF24F02DEC0EFD1E0E9471037F
S1130120D8018D938D01AE15BF05C1F79C8580E084
S11301302D8530E0282B392B822F932F62960FB612
S1130140F894DEBF0FBECDBFCF91DF911F910F9109
S1130150FF90EF9008951F920F920FB60F92112403
S11301608F9381E080934F018F910F900FBE0F907A
S11301701F9018951F93CF93DF9381E060E00E9456
S1130180E9000E945300789480E88BB98FEF9DE3D7
S1130190A9E481509040A040E1F700C000001BB8E2
S11301A010E8CDE4D1E080914F01813081F41092C8
S11301B04F010E945A0090934E0180934D011BB948
S11301C080914E010E945C0388810E945C031BB8ED
S11301D0EACF1092C50097E69093C40082E0809322
S11301E0C00028E92093C10026E02093C200299A88
S11301F0209A289A2C9A259A2D9A2A9A239A2B9AED
S1130200409A399A419A84BD85BD97BDE8E6F0E0ED
S1130210808181608083ABE6B0E08C9182608C93B6
S11302208081816080838C9180618C9380818160E6
S113023080838C9184608C93808182608083ECE6DF
S1130240F0E080818160808310920C011092420161
S11302501092410110922E0110922D01109224014E
S11302601092230110921A01109219011092100198
S113027010920F0108951F920F920FB60F9211243E
S11302808F93EF93FF9383E080930C01199909C036
S113029081E080930A01EBE6F0E080818D7F80832A
S11302A020C01C9909C082E080930A01EBE6F0E0CB
S11302B080818F7E808315C01A9909C083E0809362
S11302C00A01EBE6F0E080818B7F80830AC03099DD
S11302D008C084E080930A01ECE6F0E080818E7F20
S11302E08083EEE6F0E080818D7F808315BC89E019
S11302F086BD82E085BD87E687BD10924C01A99A30
S1130300808182608083FF91EF918F910F900FBE67
S11303100F901F9018951F920F920FB60F921124F1
S11303208F93EF93FF9383E080930C01199909C095
S113033081E080930A01EBE6F0E080818D7F808389
S113034020C01C9909C082E080930A01EBE6F0E02A
S113035080818F7E808315C01A9909C083E08093C1
S11303600A01EBE6F0E080818B7F80830AC030993C
S113037008C084E080930A01ECE6F0E080818E7F7F
S11303808083EEE6F0E080818D7F808315BC89E078
S113039086BD82E085BD87E687BD10924C01A99A8F
S11303A0808182608083FF91EF918F910F900FBEC7
S11303B00F901F9018951F920F920FB60F92112451
S11303C08F939F93EF93FF9380910C01823009F4F4
S11303D05DC0833009F472C0813009F014C180918A
S11303E00E018830C0F580910B01823091F083308A
S11303F018F4813029F505C0833099F0843001F573
S113040018C080910D0180FF02C0289A19C0289855
S113041017C080910D0180FF02C02D9A11C02D9844
S11304200FC080910D0180FF02C02B9A09C02B9848
S113043007C080910D0180FF02C0419A01C041981C
S113044080910D01869580930D0180910E018F5F3F
S113045080930E01DAC080910B01823061F0833009
S113046018F4813069F405C0833039F0843041F4E4
S113047006C0289A05C02D9A03C02B9A01C0419A40
S113048010920B0182E080930C01BFC0EEE6F0E015
S113049080818D7F8083EBE6F0E0808182608083C1
S11304A0808180618083808184608083ECE6F0E0D9
S11304B080818160808310920C01A7C087E687BD8C
S11304C080914C018830D0F580914C018F5F8093EE
S11304D04C0180914B01869580934B0180910A01D8
S11304E08230A1F0833020F4813009F08EC006C040
S11304F08330A1F0843009F088C018C0199B85C0EE
S113050080914B01806880934B017FC01C9B7DC010
S113051080914B01806880934B0177C01A9B75C012
S113052080914B01806880934B016FC0309B6DC0FC
S113053080914B01806880934B0167C080910A01D0
S11305408230D1F0833020F4813009F041C005C0FD
S1130550833009F18430E1F52DC080912D018F5F46
S1130560877080932D0190914B01EFE2F1E0E80F49
S1130570F11D9083D89A2CC0809123018F5F8770DE
S11305808093230190914B01E5E2F1E0E80FF11D26
S11305909083D89A1DC0809119018F5F87708093D2
S11305A0190190914B01EBE1F1E0E80FF11D90830B
S11305B0D89A0EC080910F018F5F877080930F01CE
S11305C090914B01E1E1F1E0E80FF11D9083D99A9C
S11305D010920A0184E080930C01EEE6F0E0808141
S11305E08D7F8083EBE6F0E0808182608083808170
S11305F080618083808184608083ECE6F0E0808188
S11306008160808302C010920C01FF91EF919F9151
S11306108F910F900FBE0F901F9018951F920F92FD
S11306200FB60F9211248F939F93EF93FF939091A2
S1130630370180913801981771F0809138018F5FEC
S1130640877080933801E9E3F1E0E80FF11D8081C0
S11306508093C60005C0E1ECF0E080818F7D80834B
S1130660FF91EF919F918F910F900FBE0F901F906C
S113067018951F920F920FB60F9211248F939F9388
S1130680EF93FF938091C60080934B0180914101C9
S11306908F5F87708093410190914B01E3E4F1E017
S11306A0E80FF11D9083FF91EF919F918F910F902F
S11306B00FBE0F901F901895209137012F5F277060
S11306C0909138012917E1F3E9E3F1E0E20FF11D1C
S11306D0808320933701E1ECF0E0808180628083A5
S11306E0089590912D0180912E019817D1F3809156
S11306F02E018F5F877080932E0110920C01EFE220
S1130700F1E0E80FF11D8081089590910C01992387
S1130710E1F791E090930C01EBE6F0E020812D7F6E
S1130720208380930D0110920E0185B58D7F85BDC8
S113073016BCA99A85B5826085BD289890930B0153
S1130740EEE6F0E08081826080830895F894FFCF24
S10D0750FF0186000000000079009C
S9030000FC
